{
  "_format": "hh-sol-artifact-1",
  "contractName": "AddressToBytes32",
  "sourceName": "contracts/libraries/AddressToBytes32.sol",
  "abi": [
    {
      "inputs": [
        {
          "internalType": "address",
          "name": "_address",
          "type": "address"
        }
      ],
      "name": "addressToBytes32",
      "outputs": [
        {
          "internalType": "bytes32",
          "name": "",
          "type": "bytes32"
        }
      ],
      "stateMutability": "pure",
      "type": "function"
    },
    {
      "inputs": [
        {
          "internalType": "bytes32",
          "name": "_bytes",
          "type": "bytes32"
        }
      ],
      "name": "bytes32ToAddress",
      "outputs": [
        {
          "internalType": "address",
          "name": "",
          "type": "address"
        }
      ],
      "stateMutability": "pure",
      "type": "function"
    }
  ],
  "bytecode": "0x610252610052600b82828239805160001a6073146045577f4e487b7100000000000000000000000000000000000000000000000000000000600052600060045260246000fd5b30600052607381538281f3fe73000000000000000000000000000000000000000030146080604052600436106100405760003560e01c80635ced058e1461004557806382c947b714610075575b600080fd5b61005f600480360381019061005a9190610110565b6100a5565b60405161006c919061017e565b60405180910390f35b61008f600480360381019061008a91906101c5565b6100b2565b60405161009c9190610201565b60405180910390f35b60008160001c9050919050565b60008173ffffffffffffffffffffffffffffffffffffffff1660001b9050919050565b600080fd5b6000819050919050565b6100ed816100da565b81146100f857600080fd5b50565b60008135905061010a816100e4565b92915050565b600060208284031215610126576101256100d5565b5b6000610134848285016100fb565b91505092915050565b600073ffffffffffffffffffffffffffffffffffffffff82169050919050565b60006101688261013d565b9050919050565b6101788161015d565b82525050565b6000602082019050610193600083018461016f565b92915050565b6101a28161015d565b81146101ad57600080fd5b50565b6000813590506101bf81610199565b92915050565b6000602082840312156101db576101da6100d5565b5b60006101e9848285016101b0565b91505092915050565b6101fb816100da565b82525050565b600060208201905061021660008301846101f2565b9291505056fea26469706673582212200fe637eb7a17d32ed84e822058ddaa9a56fb840f2a124588fd6fb362d00b55f264736f6c634300081b0033",
  "linkReferences": {},
  "deployedLinkReferences": {}
}