{
  "_format": "hh-sol-artifact-1",
  "contractName": "Pixel",
  "sourceName": "contracts/Pixel.sol",
  "abi": [
    {
      "inputs": [
        {
          "internalType": "address",
          "name": "relayer",
          "type": "address"
        },
        {
          "internalType": "address",
          "name": "wormhole",
          "type": "address"
        }
      ],
      "stateMutability": "nonpayable",
      "type": "constructor"
    },
    {
      "inputs": [
        {
          "internalType": "address",
          "name": "owner",
          "type": "address"
        }
      ],
      "name": "OwnableInvalidOwner",
      "type": "error"
    },
    {
      "inputs": [
        {
          "internalType": "address",
          "name": "account",
          "type": "address"
        }
      ],
      "name": "OwnableUnauthorizedAccount",
      "type": "error"
    },
    {
      "anonymous": false,
      "inputs": [
        {
          "indexed": true,
          "internalType": "address",
          "name": "previousOwner",
          "type": "address"
        },
        {
          "indexed": true,
          "internalType": "address",
          "name": "newOwner",
          "type": "address"
        }
      ],
      "name": "OwnershipTransferred",
      "type": "event"
    },
    {
      "inputs": [],
      "name": "APTOS_CHAIN_ID",
      "outputs": [
        {
          "internalType": "uint16",
          "name": "",
          "type": "uint16"
        }
      ],
      "stateMutability": "view",
      "type": "function"
    },
    {
      "inputs": [],
      "name": "_wormholeNonce",
      "outputs": [
        {
          "internalType": "uint32",
          "name": "",
          "type": "uint32"
        }
      ],
      "stateMutability": "view",
      "type": "function"
    },
    {
      "inputs": [],
      "name": "owner",
      "outputs": [
        {
          "internalType": "address",
          "name": "",
          "type": "address"
        }
      ],
      "stateMutability": "view",
      "type": "function"
    },
    {
      "inputs": [],
      "name": "renounceOwnership",
      "outputs": [],
      "stateMutability": "nonpayable",
      "type": "function"
    },
    {
      "inputs": [
        {
          "internalType": "bytes32",
          "name": "token",
          "type": "bytes32"
        },
        {
          "internalType": "uint256",
          "name": "tokenId",
          "type": "uint256"
        },
        {
          "internalType": "bytes32",
          "name": "receiver",
          "type": "bytes32"
        }
      ],
      "name": "revive",
      "outputs": [],
      "stateMutability": "nonpayable",
      "type": "function"
    },
    {
      "inputs": [
        {
          "internalType": "uint16",
          "name": "chainId",
          "type": "uint16"
        },
        {
          "internalType": "bytes32",
          "name": "peerContract",
          "type": "bytes32"
        }
      ],
      "name": "setPeerContract",
      "outputs": [],
      "stateMutability": "nonpayable",
      "type": "function"
    },
    {
      "inputs": [
        {
          "internalType": "address",
          "name": "token",
          "type": "address"
        },
        {
          "internalType": "uint256",
          "name": "tokenId",
          "type": "uint256"
        },
        {
          "internalType": "bytes32",
          "name": "receiver",
          "type": "bytes32"
        }
      ],
      "name": "transfer",
      "outputs": [],
      "stateMutability": "payable",
      "type": "function"
    },
    {
      "inputs": [
        {
          "internalType": "address",
          "name": "newOwner",
          "type": "address"
        }
      ],
      "name": "transferOwnership",
      "outputs": [],
      "stateMutability": "nonpayable",
      "type": "function"
    }
  ],
  "bytecode": "0x60a06040526001600060146101000a81548163ffffffff021916908363ffffffff1602179055506016600260006101000a81548161ffff021916908361ffff16021790555034801561005057600080fd5b5060405161167d38038061167d83398181016040528101906100729190610257565b81600073ffffffffffffffffffffffffffffffffffffffff168173ffffffffffffffffffffffffffffffffffffffff16036100e55760006040517f1e4fbdf70000000000000000000000000000000000000000000000000000000081526004016100dc91906102a6565b60405180910390fd5b6100f48161013060201b60201c565b508073ffffffffffffffffffffffffffffffffffffffff1660808173ffffffffffffffffffffffffffffffffffffffff168152505050506102c1565b60008060009054906101000a900473ffffffffffffffffffffffffffffffffffffffff169050816000806101000a81548173ffffffffffffffffffffffffffffffffffffffff021916908373ffffffffffffffffffffffffffffffffffffffff1602179055508173ffffffffffffffffffffffffffffffffffffffff168173ffffffffffffffffffffffffffffffffffffffff167f8be0079c531659141344cd1fd0a4f28419497f9722a3daafe3b4186f6b6457e060405160405180910390a35050565b600080fd5b600073ffffffffffffffffffffffffffffffffffffffff82169050919050565b6000610224826101f9565b9050919050565b61023481610219565b811461023f57600080fd5b50565b6000815190506102518161022b565b92915050565b6000806040838503121561026e5761026d6101f4565b5b600061027c85828601610242565b925050602061028d85828601610242565b9150509250929050565b6102a081610219565b82525050565b60006020820190506102bb6000830184610297565b92915050565b60805161139a6102e36000396000818161055d0152610873015261139a6000f3fe60806040526004361061007b5760003560e01c806378e411a71161004e57806378e411a7146101075780638da5cb5b14610130578063f2fde38b1461015b578063f515bda9146101845761007b565b8063145abc5b1461008057806357cfeeee146100ab578063703e849d146100c7578063715018a6146100f0575b600080fd5b34801561008c57600080fd5b506100956101af565b6040516100a29190610ada565b60405180910390f35b6100c560048036038101906100c09190610bd3565b6101c5565b005b3480156100d357600080fd5b506100ee60048036038101906100e99190610c26565b6102e0565b005b3480156100fc57600080fd5b5061010561044e565b005b34801561011357600080fd5b5061012e60048036038101906101299190610cb3565b610462565b005b34801561013c57600080fd5b5061014561048e565b6040516101529190610d02565b60405180910390f35b34801561016757600080fd5b50610182600480360381019061017d9190610d1d565b6104b7565b005b34801561019057600080fd5b5061019961053d565b6040516101a69190610d59565b60405180910390f35b600060149054906101000a900463ffffffff1681565b60006101cf610551565b90508373ffffffffffffffffffffffffffffffffffffffff166323b872dd8230866040518463ffffffff1660e01b815260040161020e93929190610d83565b600060405180830381600087803b15801561022857600080fd5b505af115801561023c573d6000803e3d6000fd5b505050506102da8473ffffffffffffffffffffffffffffffffffffffff1673__$cd1346a8e2955df852b4501a7004a2b636$__6382c947b790916040518263ffffffff1660e01b81526004016102929190610dc9565b602060405180830381865af41580156102af573d6000803e3d6000fd5b505050506040513d601f19601f820116820180604052508101906102d39190610df9565b8484610559565b50505050565b6102e8610970565b8273__$cd1346a8e2955df852b4501a7004a2b636$__635ced058e90916040518263ffffffff1660e01b81526004016103219190610e35565b602060405180830381865af415801561033e573d6000803e3d6000fd5b505050506040513d601f19601f820116820180604052508101906103629190610e65565b73ffffffffffffffffffffffffffffffffffffffff166323b872dd308373__$cd1346a8e2955df852b4501a7004a2b636$__635ced058e90916040518263ffffffff1660e01b81526004016103b79190610e35565b602060405180830381865af41580156103d4573d6000803e3d6000fd5b505050506040513d601f19601f820116820180604052508101906103f89190610e65565b856040518463ffffffff1660e01b815260040161041793929190610d83565b600060405180830381600087803b15801561043157600080fd5b505af1158015610445573d6000803e3d6000fd5b50505050505050565b610456610970565b61046060006109f7565b565b61046a610970565b80600160008461ffff1661ffff168152602001908152602001600020819055505050565b60008060009054906101000a900473ffffffffffffffffffffffffffffffffffffffff16905090565b6104bf610970565b600073ffffffffffffffffffffffffffffffffffffffff168173ffffffffffffffffffffffffffffffffffffffff16036105315760006040517f1e4fbdf70000000000000000000000000000000000000000000000000000000081526004016105289190610d02565b60405180910390fd5b61053a816109f7565b50565b600260009054906101000a900461ffff1681565b600033905090565b60007f000000000000000000000000000000000000000000000000000000000000000073ffffffffffffffffffffffffffffffffffffffff16631a90a2196040518163ffffffff1660e01b8152600401602060405180830381865afa1580156105c6573d6000803e3d6000fd5b505050506040513d601f19601f820116820180604052508101906105ea9190610ea7565b90508034101561062f576040517f08c379a000000000000000000000000000000000000000000000000000000000815260040161062690610f31565b60405180910390fd5b600060016000600260009054906101000a900461ffff1661ffff1661ffff16815260200190815260200160002054905060008573__$cd1346a8e2955df852b4501a7004a2b636$__635ced058e90916040518263ffffffff1660e01b815260040161069a9190610e35565b602060405180830381865af41580156106b7573d6000803e3d6000fd5b505050506040513d601f19601f820116820180604052508101906106db9190610e65565b905060008287878473ffffffffffffffffffffffffffffffffffffffff166306fdde036040518163ffffffff1660e01b8152600401600060405180830381865afa15801561072d573d6000803e3d6000fd5b505050506040513d6000823e3d601f19601f8201168201806040525081019061075691906110b2565b8573ffffffffffffffffffffffffffffffffffffffff166395d89b416040518163ffffffff1660e01b8152600401600060405180830381865afa1580156107a1573d6000803e3d6000fd5b505050506040513d6000823e3d601f19601f820116820180604052508101906107ca91906110b2565b8673ffffffffffffffffffffffffffffffffffffffff1663c87b56dd8c6040518263ffffffff1660e01b815260040161080391906110fb565b600060405180830381865afa158015610820573d6000803e3d6000fd5b505050506040513d6000823e3d601f19601f8201168201806040525081019061084991906110b2565b8a6040516020016108609796959493929190611169565b60405160208183030381529060405290507f000000000000000000000000000000000000000000000000000000000000000073ffffffffffffffffffffffffffffffffffffffff1663b19a437e85600060149054906101000a900463ffffffff168460006040518563ffffffff1660e01b81526004016108e29392919061125e565b60206040518083038185885af1158015610900573d6000803e3d6000fd5b50505050506040513d601f19601f8201168201806040525081019061092591906112dc565b506000601481819054906101000a900463ffffffff168092919061094890611338565b91906101000a81548163ffffffff021916908363ffffffff1602179055505050505050505050565b610978610551565b73ffffffffffffffffffffffffffffffffffffffff1661099661048e565b73ffffffffffffffffffffffffffffffffffffffff16146109f5576109b9610551565b6040517f118cdaa70000000000000000000000000000000000000000000000000000000081526004016109ec9190610d02565b60405180910390fd5b565b60008060009054906101000a900473ffffffffffffffffffffffffffffffffffffffff169050816000806101000a81548173ffffffffffffffffffffffffffffffffffffffff021916908373ffffffffffffffffffffffffffffffffffffffff1602179055508173ffffffffffffffffffffffffffffffffffffffff168173ffffffffffffffffffffffffffffffffffffffff167f8be0079c531659141344cd1fd0a4f28419497f9722a3daafe3b4186f6b6457e060405160405180910390a35050565b600063ffffffff82169050919050565b610ad481610abb565b82525050565b6000602082019050610aef6000830184610acb565b92915050565b6000604051905090565b600080fd5b600080fd5b600073ffffffffffffffffffffffffffffffffffffffff82169050919050565b6000610b3482610b09565b9050919050565b610b4481610b29565b8114610b4f57600080fd5b50565b600081359050610b6181610b3b565b92915050565b6000819050919050565b610b7a81610b67565b8114610b8557600080fd5b50565b600081359050610b9781610b71565b92915050565b6000819050919050565b610bb081610b9d565b8114610bbb57600080fd5b50565b600081359050610bcd81610ba7565b92915050565b600080600060608486031215610bec57610beb610aff565b5b6000610bfa86828701610b52565b9350506020610c0b86828701610b88565b9250506040610c1c86828701610bbe565b9150509250925092565b600080600060608486031215610c3f57610c3e610aff565b5b6000610c4d86828701610bbe565b9350506020610c5e86828701610b88565b9250506040610c6f86828701610bbe565b9150509250925092565b600061ffff82169050919050565b610c9081610c79565b8114610c9b57600080fd5b50565b600081359050610cad81610c87565b92915050565b60008060408385031215610cca57610cc9610aff565b5b6000610cd885828601610c9e565b9250506020610ce985828601610bbe565b9150509250929050565b610cfc81610b29565b82525050565b6000602082019050610d176000830184610cf3565b92915050565b600060208284031215610d3357610d32610aff565b5b6000610d4184828501610b52565b91505092915050565b610d5381610c79565b82525050565b6000602082019050610d6e6000830184610d4a565b92915050565b610d7d81610b67565b82525050565b6000606082019050610d986000830186610cf3565b610da56020830185610cf3565b610db26040830184610d74565b949350505050565b610dc381610b29565b82525050565b6000602082019050610dde6000830184610dba565b92915050565b600081519050610df381610ba7565b92915050565b600060208284031215610e0f57610e0e610aff565b5b6000610e1d84828501610de4565b91505092915050565b610e2f81610b9d565b82525050565b6000602082019050610e4a6000830184610e26565b92915050565b600081519050610e5f81610b3b565b92915050565b600060208284031215610e7b57610e7a610aff565b5b6000610e8984828501610e50565b91505092915050565b600081519050610ea181610b71565b92915050565b600060208284031215610ebd57610ebc610aff565b5b6000610ecb84828501610e92565b91505092915050565b600082825260208201905092915050565b7f496e73756666696369656e74206d657373616765206665650000000000000000600082015250565b6000610f1b601883610ed4565b9150610f2682610ee5565b602082019050919050565b60006020820190508181036000830152610f4a81610f0e565b9050919050565b600080fd5b600080fd5b6000601f19601f8301169050919050565b7f4e487b7100000000000000000000000000000000000000000000000000000000600052604160045260246000fd5b610fa482610f5b565b810181811067ffffffffffffffff82111715610fc357610fc2610f6c565b5b80604052505050565b6000610fd6610af5565b9050610fe28282610f9b565b919050565b600067ffffffffffffffff82111561100257611001610f6c565b5b61100b82610f5b565b9050602081019050919050565b60005b8381101561103657808201518184015260208101905061101b565b60008484015250505050565b600061105561105084610fe7565b610fcc565b90508281526020810184848401111561107157611070610f56565b5b61107c848285611018565b509392505050565b600082601f83011261109957611098610f51565b5b81516110a9848260208601611042565b91505092915050565b6000602082840312156110c8576110c7610aff565b5b600082015167ffffffffffffffff8111156110e6576110e5610b04565b5b6110f284828501611084565b91505092915050565b60006020820190506111106000830184610d74565b92915050565b61111f81610b9d565b82525050565b600081519050919050565b600061113b82611125565b6111458185610ed4565b9350611155818560208601611018565b61115e81610f5b565b840191505092915050565b600060e08201905061117e600083018a611116565b61118b6020830189611116565b6111986040830188610d74565b81810360608301526111aa8187611130565b905081810360808301526111be8186611130565b905081810360a08301526111d28185611130565b90506111e160c0830184611116565b98975050505050505050565b600081519050919050565b600082825260208201905092915050565b6000611214826111ed565b61121e81856111f8565b935061122e818560208601611018565b61123781610f5b565b840191505092915050565b600060ff82169050919050565b61125881611242565b82525050565b60006060820190506112736000830186610acb565b81810360208301526112858185611209565b9050611294604083018461124f565b949350505050565b600067ffffffffffffffff82169050919050565b6112b98161129c565b81146112c457600080fd5b50565b6000815190506112d6816112b0565b92915050565b6000602082840312156112f2576112f1610aff565b5b6000611300848285016112c7565b91505092915050565b7f4e487b7100000000000000000000000000000000000000000000000000000000600052601160045260246000fd5b600061134382610abb565b915063ffffffff820361135957611358611309565b5b60018201905091905056fea26469706673582212203ca2bdff6ed983c07bd50fe91cf03fd453a0d620377731e242d9c963161aea7664736f6c634300081b0033",
  "linkReferences": {
    "contracts/libraries/AddressToBytes32.sol": {
      "AddressToBytes32": [
        {
          "length": 20,
          "start": 1343
        },
        {
          "length": 20,
          "start": 1486
        },
        {
          "length": 20,
          "start": 1636
        },
        {
          "length": 20,
          "start": 2375
        }
      ]
    }
  },
  "deployedLinkReferences": {
    "contracts/libraries/AddressToBytes32.sol": {
      "AddressToBytes32": [
        {
          "length": 20,
          "start": 604
        },
        {
          "length": 20,
          "start": 747
        },
        {
          "length": 20,
          "start": 897
        },
        {
          "length": 20,
          "start": 1636
        }
      ]
    }
  }
}